:020000040800F2
:10000000A8040020C5010008F31D000875180008A9
:10001000F11D0008E908000859210008000000004F
:10002000000000000000000000000000F71D0008B4
:10003000EB08000800000000F51D0008F91D00088D
:10004000DF010008DF010008DF010008DF01000810
:10005000DF010008DF010008DF010008DF01000800
:10006000DF010008DF010008DF010008DF010008F0
:10007000DF010008DF010008DF010008DF010008E0
:10008000DF010008DF010008DF010008DF010008D0
:10009000DF010008DF010008DF010008DF010008C0
:1000A000DF010008DF010008DF010008DF010008B0
:1000B000DF010008DF010008DF010008DF010008A0
:1000C000DF010008DF010008DF010008DF01000890
:1000D000DF0100084D210008DF010008DF010008F2
:1000E000DF010008DF010008DF010008DF01000870
:1000F000DF010008DF010008DF010008DF01000860
:10010000DF010008DF010008DF010008DF0100084F
:10011000DF010008DF010008DF010008DF0100083F
:10012000DF010008DF010008DF010008DF0100082F
:10013000DF010008DF010008DF010008DF0100081F
:10014000DF010008DF010008DF010008DF0100080F
:10015000DF010008DF010008DF010008DF010008FF
:10016000DF010008DF010008DF010008DF010008EF
:10017000DF010008DF010008DF01000800000000C7
:10018000DF010008DF010008DF010008DF010008CF
:10019000DF010008DF010008DF010008DF010008BF
:1001A0000000000000000000DF010008DFF810D0B0
:1001B00000F076FB00480047E9340008AFF3008008
:1001C000A80400200648804706480047FEE7FEE7EF
:1001D000FEE7FEE7FEE7FEE7FEE7FEE7FEE7FEE7F7
:1001E0009D1E0008AD0100082DE9F05F05460020C6
:1001F00092469B4688460646814640241BE0284698
:1002000041464746224600F0F8F853465A46C01A7F
:10021000914110D311461846224600F0DFF82D1AFE
:1002200067EB01084F4622460120002100F0D6F876
:1002300017EB00094E41201EA4F10104DFDC484603
:1002400031462A464346BDE8F09FD2B201E000F8AD
:10025000012B491EFBD270470022F6E710B513466A
:100260000A4604461946FFF7F0FF204610BD2DE967
:10027000FE4F81EA030404F0004421F000410094A1
:100280004FF0000B23F0004350EA01045ED052EA25
:1002900003045BD0C3F30A54C1F30A552C44A4F2FF
:1002A000F3340194A0FB0254C1F3130141F4801113
:1002B000C3F3130343F4801301FB024400FB034E1A
:1002C000840A970A44EA815447EA8357A4FB0768E3
:1002D00002958D0A05FB07854FEA932C04FB0C540D
:1002E0002705029D4FEA065847EA1637B5EB080581
:1002F0006EEB070C870E920E47EA811742EA8312D3
:10030000A7FB0201B6EB0B0164EB00042B0D43EAE3
:100310000C335E1844EB1C50DA465146E7FB0201F1
:10032000C5F313044FEA0B3343EA14534FEA043284
:10033000019C43EA0603A4F10C040294009CCDE95D
:1003400000B400F0B0F803B0BDE8F08F0020014623
:10035000F9E700F0004230F000400AD0C10D01F58D
:100360006071C0F3160042EA0151C2084007114310
:10037000704700200146704701F0004330B421F07F
:10038000004150EA010206D00A0DA2F56072C1F3E5
:100390001301002A02DC30BC00207047440F44EAFD
:1003A000C104C100E01830BC00EBC25000F035B809
:1003B00030B50B46014600202022012409E021FA35
:1003C00002F59D4205D303FA02F5491B04FA02F532
:1003D0002844151EA2F10102F1DC30BD202A04DB05
:1003E000203A00FA02F1002070479140C2F1200348
:1003F00020FA03F3194390407047202A04DB203A87
:1004000021FA02F00021704721FA02F3D040C2F134
:10041000200291400843194670470029A8BF704741
:10042000401C490008BF20F00100704710B4B0FA2A
:1004300080FC00FA0CF050EA010404BF10BC7047C5
:1004400049B1CCF1200421FA04F411FA0CF118BFDF
:10045000012121430843A3EB0C01CB1D4FEA0061AE
:100460004FEA102042BF002010BC704700EBC35081
:1004700010440029A4BF10BC7047401C490008BFAD
:1004800020F0010010BC704710B5141E73F1000479
:1004900008DA401C41F1000192185B411A4301D176
:1004A00020F0010010BD2DE9F04D92469B4611B1A0
:1004B000B1FA81F202E0B0FA80F220329046FFF702
:1004C0008DFF04460F4640EA0A0041EA0B015346FD
:1004D0005A46084313D0114653EA010019D0C8F117
:1004E00040025046FFF789FF05460E4650465946E2
:1004F0004246FFF773FF084305D0012004E0204681
:100500003946BDE8F08D0020054346EAE0762C43ED
:1005100037430A986305E40AA0EB08000022FD0AAD
:1005200044EA47540A3002D500200146E9E70105B4
:1005300010196941DDE9084500196941BDE8F04D30
:10054000A2E72DE9FE4F804681EA0300C00F0C466A
:10055000009021F0004123F00045B8EB0200A941D2
:1005600005D24046214690461C460B46024623F0E3
:100570000040104347D0270DC7F30A00C3F30A51C8
:100580000290401A019040286BDAC3F3130040F444
:10059000801B0098924620B10023D2EB030A63EB44
:1005A0000B0B01985946C0F140025046FFF716FF69
:1005B00006460D4650465946019A00F083F910EB65
:1005C00008006141002487EA115284EAE7731A4364
:1005D00040D0009A62B3019A012A4FEA075215DC13
:1005E000001B61EB02014FF0004202EA0752CDE925
:1005F0000042001C41F5801132462B46FFF753FFA5
:1006000003B0BDE8F08F40462146F9E7001B61EBDF
:100610000201001C41F5801300185B412018A2F56F
:10062000001747EB030140EAD570B6196D4111E0A0
:100630006D084FEA360645EAC0754FEA0752001BBF
:1006400061EB0201001C41F5801149084FEA3000BE
:100650000019514132462B4603B0BDE8F04FFFF779
:1006600013BF0098012240000023D0EB020263EB8D
:10067000E073009821464FEAE074B8EB000061EBAC
:100680000401E9E783F000435BE781F0004158E7AC
:100690002DE9F04D81EA030404F0004B21F0004500
:1006A00014464FF0000A23F0004150EA050220D022
:1006B00054EA01021DD0C5F30A570246C5F31303DD
:1006C000C1F31300C1F30A5640F4801543F48013BC
:1006D000A7EB0608101BD64608F2FD3873EB0500A1
:1006E00002D308F1010801E092185B41B8F1000F54
:1006F00003DA00200146BDE8F08D00204FF48011A0
:10070000064684460EE0171B73EB050705D3121B44
:1007100063EB050306434CEA010C49084FEA30003D
:1007200092185B4150EA0107EDD152EA030012D062
:1007300082EA040083EA0501084305D0101BAB419F
:1007400006D20122002306E000224FF0004302E01F
:100750006FF0010253101AEB06004CEB085110EB3E
:100760000A0041EB0B01BDE8F04DFFF78DBE2DE90E
:10077000F04D00231A461B1A8A4103DB0020014674
:10078000BDE8F08DC1F30A52C1F3130141F48015A5
:100790004FF0000BD10702D100186D41521E002707
:1007A000044640F2FF11384601EB620A3E4680469D
:1007B000024600204FF48011FFF71FFEC21971415D
:1007C000BB1846EB0100B4EB030C75EB000C04D333
:1007D000E41A65EB000517460E46241908F10100DE
:1007E0006D4180463428E3DDF91946EB0600091B0C
:1007F000A84103D24FF0FF32134601E00022134616
:100800001BEB070046EB0A51BDE8F04DFFF73CBE7D
:10081000C1F30A52C1F3130140F2FF3341F48011D6
:100820009A4202DA00200146704740F233439A426E
:10083000A2F2334202DC5242FFF7DFBDFFF7CEBD2A
:1008400030B5041E71F1000404DB4FF00044404257
:1008500064EB0101141E73F1000405DB1C464FF02C
:100860000043524263EB04038B4208BF824230BD17
:1008700030B5041E71F1000404DB4FF00044404227
:1008800064EB0101141E73F1000405DB1C464FF0FC
:100890000043524263EB0403994208BF904230BDCB
:1008A000064C074D06E0E06840F0010394E80700BD
:1008B00098471034AC42F6D3FFF77CFC1837000899
:1008C00038370008202A06DBCB17203A41FA02F01D
:1008D00043EAE07306E041FA02F3D040C2F120029D
:1008E0009140084319467047FEE7704772B6FEE72D
:1008F00070B54A4C2DED088BB7EE009AF0EE008AE9
:10090000B0EE498A94ED02BAD4ED039A2BEE0B0AAD
:1009100009EEA90A00EE688A18EE100AFFF719FD21
:1009200094ED010AD4ED040A41EC1A0B20EE0B0AF7
:1009300009EEA00A20EE280A10EE100AFFF709FDC2
:1009400041EC100BB0EE4A1AF0EE6A1A01F05CFFAF
:100950009FED33AB51EC100B53EC1A2BFFF787FCD8
:10096000FFF70AFD304D00EE100A85ED000A94ED08
:10097000010AD4ED030A94ED041A20EE200AD4ED06
:10098000020A00EEC10A20EE280A10EE100AFFF754
:10099000E0FC41EC100B01F01BFC53EC1A2B51EC6A
:1009A000100BFFF764FCFFF7E7FC00EE100A85ED83
:1009B000010A94ED03BA94ED048A2BEE0B0A08EEBB
:1009C000080A00EE689A19EE100AFFF7C2FC94EDCF
:1009D000010AD4ED020A41EC190B20EE080A00EEE0
:1009E0008B0A20EE280A10EE100AFFF7B2FC41EC49
:1009F000100BB0EE491AF0EE691A01F005FF53EC46
:100A00001A2B51EC100BFFF732FCFFF7B5FC00EE90
:100A1000100A85ED020ABDEC088B70BD10000020A5
:100A2000000000C0DCA54C40980000202DE9F041FA
:100A30000446876D00F08CF9064694F835000025D1
:100A4000022806D08020606584F834500120BDE87B
:100A5000F0812068016821F0160101602068416979
:100A600021F080014161206C08B9A06C20B12068A0
:100A7000016821F0080101602068016821F001018E
:100A800001600CE000F064F9801B052807D92020E4
:100A90006065032084F8350084F83450D7E7206877
:100AA0000068C007EED194F85C103F208840B86021
:100AB000012084F8350084F834500020C7E790F80E
:100AC0003510022903D0802141650120704705219E
:100AD00080F835100068016821F0010101600020F4
:100AE0007047000070B5044600F032F90546601CFE
:100AF00002D004480078044400F02AF9401BA042C8
:100B0000FAD370BD000000202DE9F84FDFF8F8A1FE
:100B10000022012403254FF00F090AF1040BAAF16A
:100B2000040E00BF0B6804FA02F63340B34270D1E2
:100B30000F7907F00307012F01D0022F16D1876824
:100B40004FEA420805FA08FC27EA0C07D1F80CC066
:100B50000CFA08FC4CEA070CC0F808C04768B74319
:100B60000E79C6F3001696403E4346600E79F64372
:100B7000B6070AD0C7684FEA420C05FA0CF6B7432D
:100B80008E6806FA0CF63E43C6600E7906F0030640
:100B9000022E10D1D60800EB8608D8F8206057073F
:100BA0004FEAD76C09FA0CF7BE430F6907FA0CF746
:100BB0003743C8F8207006684FEA420C05FA0CF774
:100BC000BE430F7907F0030707FA0CF737430760B6
:100BD0004E6816F4403F1CD04C4E376847F48047AF
:100BE0003760366822F0030706F480460096484EC8
:100BF00007EB060CDCF8086897073F0F09FA07F8BF
:100C000026EA0806DFF80C81404503D14FF00008C2
:100C100041E072E0DFF80081404502D14FF0010869
:100C200039E0DFF8F880404502D14FF0020832E0A9
:100C3000DFF8EC80404502D14FF003082BE0DFF8ED
:100C4000E480404502D14FF0040824E0DFF8D8806A
:100C5000404502D14FF005081DE0DFF8D080404547
:100C600002D14FF0060816E0DFF8C480404502D1FB
:100C70004FF007080FE0DFF8BC80404502D14FF08D
:100C8000080808E0DFF8B080404502D14FF00908BD
:100C900001E04FF00A0808FA07F848EA0608CCF81D
:100CA0000888DAF800605746D1F804C09E435FEA2E
:100CB000CC2C00D51E433E60DBF800605F46D1F8C7
:100CC00004C09E435FEA8C2C00D51E433E60DEF8D4
:100CD00000607746D1F804C09E435FEA8C3C00D5A3
:100CE0001E433E60084F083F3E68D1F804C09E4353
:100CF0005FEACC3C00D51E433E60521C102AFFF434
:100D000011AFBDE8F88F0000083C014044380240B4
:100D10000030014000000240000402400008024090
:100D2000000C024000100240001402400018024073
:100D3000001C0240002002400024024000690840DC
:100D400000D0012070470AB1816170470904FBE7B8
:100D50000148806870470000000000200248816858
:100D60000278114481607047000000200B4810B5E4
:100D7000016841F400710160016841F48061016023
:100D8000016841F480710160032000F06FF80F20CA
:100D900000F006F800F024F8002010BD003C0240EE
:100DA00070B50D4D04464FF47A712878B1FBF0F020
:100DB0000A490968B1FBF0F000F044FB48B9102C77
:100DC00007D200222146501E00F030F800206C604F
:100DD00070BD012070BD0000000000200C0000204C
:100DE0000A4808B5016841F480410160006800F4D8
:100DF000804000900548001F016841F0805101606B
:100E0000006800F08050009008BD000044380240A7
:100E1000002809DB00F01F020121914040098000F9
:100E200000F1E020C0F8001170470000F0B40E4B54
:100E30001B680C46C3F30223C3F10705042D00D938
:100E40000425191D072901D2002300E0DB1E01261D
:100E500006FA05F1491E214099409E40761E164033
:100E60003143F0BC01F0A2B90CED00E0064900F0FE
:100E7000070208684FF6FF03184040EA0220034AC1
:100E800010430860704700000CED00E00000FA0518
:100E90002DE9F8431748016841F08051016000686E
:100EA000154F00F08050012600903E64FFF750FF80
:100EB00005464FF47A78114C05E000BFFFF748FF74
:100EC000401B40450DD86068C003F7D57E64FFF72E
:100ED0003FFF0546464607E0FFF73AFF401BB0429A
:100EE00002D90320BDE8F88360688003F4D50020B0
:100EF000F8E700004038024000000E420070004059
:100F00002DE9F0470E46050065D0DFF81481D8F8CA
:100F10000000F7B200F00F00B04207D288F800706E
:100F2000D8F8000000F00F00B04254D128683D4CC2
:100F3000810712D5400703D5206840F4E0502060B7
:100F40002878000703D5206840F4604020602068BE
:100F5000A96820F0F000084320602878C0072DD051
:100F6000304968680839012812D0022813D00328B4
:100F700011D00968890700292DDA216821F00301C1
:100F800001432160FFF7E4FE814641F2883A0EE01A
:100F900009688903EFE709688901ECE7FFF7D8FEE4
:100FA000A0EB0901514502D90320BDE8F087206874
:100FB000696800F00C00B0EB810FEFD1D8F8001099
:100FC000404601F00F01B14207D90770006800F0F8
:100FD0000F00B04201D00120E7E72878400705D58F
:100FE0002068E96820F4E050084320602878000772
:100FF00006D52068296920F4604040EAC1002060DD
:1010000000F038F82168084AC1F30311515CC84068
:101010000649086006480068FFF7C2FE0020C4E7E2
:10102000003C0240083802400A3600080C0000204C
:10103000040000200448054900680968044AC1F317
:101040008221515CC84070470C00002008380240E3
:101050001A3600080448054900680968044AC1F3C3
:101060004231515CC84070470C00002008380240F3
:101070001A360008154810B5006810F00C02144824
:1010800013D01449042A0FD0082A0ED10F4C241F64
:101090002268236802F03F025B0207D52068C0F394
:1010A0008810A0FB010106E0084610BD2168C1F3CD
:1010B0008811A1FB00010023FFF796F82168C1F316
:1010C0000141491C4900B0FBF1F010BD0838024055
:1010D0000024F40040787D012DE9F84F04006ED023
:1010E0002078DFF84C93C007A9F104054AD009F134
:1010F00004000168C1F38101012908D00068C0F330
:10110000810002280AD1D9F80000400206D52868DB
:10111000800337D560680028E1D033E06068B0F51F
:10112000803F10D0B0F5A02F286810D020F4803078
:101130002860286820F4802028606068A8B1FFF744
:1011400007FE06460DE0286840F48030F4E740F4DE
:1011500080202860F7E700BFFFF7FAFD801B6428B6
:1011600073D828688003F7D50CE0FFF7F1FD064639
:1011700005E000BFFFF7ECFD801B6428F0D828686D
:101180008003F7D42078DFF8AC8280074FF0000AA4
:101190003ED5A748001D016811F00C0F08D000686B
:1011A000C0F3810002280BD1D9F80000400207D417
:1011B0002868800716D5E068012800D112E033E1E5
:1011C000E068B8B10120C8F80000FFF7C1FD06468D
:1011D00005E000BFFFF7BCFD801B0228C0D82868CF
:1011E0008007F7D52868216920F0F80040EAC1009F
:1011F00028600DE0C8F800A0FFF7AAFD064604E04D
:10120000FFF7A6FD801B02281FD828688007F7D4A7
:101210002078000722D5864F87486169703771B101
:1012200001210160FFF794FD064604E0FFF790FD01
:10123000801B022809D838688007F7D50EE0C0F86F
:1012400000A0FFF785FD064605E082E0FFF780FD80
:10125000801B02287DD838688007F7D420784007A3
:1012600068D5DFF8CCB100270BF13C0BDBF80000B0
:10127000C0000BD4DBF8001041F08051CBF8001017
:10128000DBF80000012700F0805000906B4E3068C2
:10129000C00510D4306840F480703060FFF758FD0E
:1012A000009005E0FFF754FD0099401A022850D83D
:1012B0003068C005F6D55E4EA0686C3601280FD0A8
:1012C0000528306810D020F001003060306820F030
:1012D00004003060A068B8B1FFF73AFD00900FE05D
:1012E000306840F00100F4E740F004003060F7E7B8
:1012F000FFF72EFD0099411A41F28830814266D8ED
:1013000030688007F4D50EE0FFF722FD009007E07B
:10131000FFF71EFD0099411A41F28830814256D8EC
:1013200030688007F4D42FB1DBF8001021F0805131
:10133000CBF80010A069C8B33D49091D0968C1F385
:10134000810102294AD00228504607D0C8F860001F
:1013500000E03CE0FFF7FCFC04463BE04746C8F8F1
:101360006000FFF7F5FC064605E000BFFFF7F0FC64
:10137000801B02282BD828688001F7D4D4E9070104
:101380000843A16A2E4A490802EB0141626A41EA18
:101390008211084394F82C1040EA0161C9F800104A
:1013A00001203866FFF7D4FC044606E03EE000BFAB
:1013B000FFF7CEFC001B022809D828688001F7D56A
:1013C00034E000BFFFF7C4FC001B022802D9032051
:1013D000BDE8F88F28688001F4D427E00128F7D011
:1013E000D9F80000E26900F4800191421CD1226A20
:1013F00000F03F01914217D147F6C071626A014087
:10140000B1EB821F10D1A26A4FF0FF3300F44031DC
:1014100003EB5202B1EB024F06D194F82C1000F00E
:101420007060B0EB016F01D00120D1E70020CFE761
:101430000438024000004742800E474200700040DE
:101440000000FFFF10B5401EB0F1807F01D30120E6
:1014500010BD4FF0E02460610F21601700F0A6FE80
:101460000020A06107202061002010BD7047704758
:10147000F8B5016804460868CA684B6910F00F0F98
:101480004FF0000559D003F0010602F4907737437E
:1014900065D0C10705D0D10503D5616C41F00101CC
:1014A0006164410705D5D90703D0616C41F00201A1
:1014B0006164810705D5D90703D0616C41F004014F
:1014C0006164010707D502F02001314303D0616C4C
:1014D00041F008016164616C00293AD0800604D5AE
:1014E000900602D5204600F00FFD20684069616C2F
:1014F000C0F38010090700D460B3204600F0DDFC83
:1015000020684069400621D52068143050E8001F4B
:1015100021F0400140E80012002AF5D1E06BA8B1AB
:1015200072490165E06BFFF7CAFA002811D0E06B41
:10153000016D01B0BDE8F040084783060FD5930662
:101540000DD52046BDE8F84000F0DEBC2046FFF790
:101550008EFFF8BD2046FFF78AFF6564F8BD266B55
:101560002023012E7ED1C6067CD5D6067AD5086802
:101570004868009048694FF0020640064DD5E26B7E
:10158000106840684FF480770004000C3AD0A18DB9
:10159000814237D9E085D069B8422DD020680C301F
:1015A00050E8001F21F4807140E80012002AF5D1B4
:1015B0002068143050E8001F21F0010140E80012BB
:1015C000002AF5D12068143050E8001F21F04001B6
:1015D00040E80012002AF5D184F8423025632068E3
:1015E0000C3050E8001F21F0100140E80012002AE2
:1015F000F5D1E06BFFF71AFA6663A08DE18D401A12
:1016000081B206E0A18D8142A8D1D069B842A5D1AE
:1016100066632046FFF72AFFF8BDA08DE18D401AD2
:1016200081B2E08D0028F7D00029F5D020680C3079
:1016300050E8002F22F4907240E80027002FF5D1E7
:101640002068143050E8002F22F0010240E8002703
:10165000002FF5D184F84230256320680C3050E823
:10166000002F00E006E022F0100240E80023002BEB
:10167000F3D1CDE705062BD5150629D594F8410001
:101680002128C9D1A068B0F5805F01D12069B0B12F
:10169000206A411C2162216800784860E08C401E6D
:1016A0000004000CE084B7D12068C16821F08001FB
:1016B000C1602068C16841F04001C160F8BD206A86
:1016C0000088C0F308004860206A801C2062E5E7BB
:1016D0004006F3D55006F1D5CA68204622F04002F4
:1016E000CA6084F8413000F0C4F8F8BDAD1E0008AF
:1016F00070B5040004D094F84100002510B106E054
:10170000012070BD84F84050204600F023F82420CA
:1017100084F841002068C16821F40051C16020466E
:1017200000F054FC2068016921F4904101612068B7
:10173000416921F02A0141612068C16841F40051EA
:10174000C1606564202084F8410084F8420065632C
:10175000002070BD10B586B0044614216846FEF71F
:101760007BFD18492068884229D11748002102686A
:1017700042F010020260006800F01000059012486C
:101780001438026842F001020260006800F00100B3
:1017900005904FF4C06000900220CDE901010320C4
:1017A00003900720049069460848FFF7ADF900222E
:1017B00011462520FFF73AFB2520FFF729FB06B04D
:1017C00010BD0000001001404438024000000240FB
:1017D00070472DE9F843044690F8410098461646B4
:1017E0000D46202802D00220BDE8F88385B17EB1E5
:1017F00000206064212084F84100FFF7A9FAA68444
:101800008146E684A0682027B0F5805F02D003E01F
:101810000120E9E7206910B12E4600250EE00026E0
:101820000CE08021204600F057FCA8B9C6B116F89C
:10183000010B21684860E08C401EE084E08C4B4640
:101840004FF00002CDF800800028EAD14FF04001AF
:10185000204600F041FC40B184F841700320C3E70A
:1018600035F8020BC0F30800E3E784F8417000206C
:10187000BAE77047FEE708B500204FF47A71009090
:10188000401C00908842FBDB08BD00002DE9F041C0
:10189000234D07460024012280212846FFF753FAF2
:1018A0005FF00006FFF7E7FF012240212846FFF71F
:1018B0004AFAFFF7E0FF6006040E80212846FFF792
:1018C0003DFA012801D144F00104002240212846BC
:1018D000FFF739FAFFF7CFFF761C082EE2DB0FB1D6
:1018E000002200E0012280212846FFF72CFAFFF7B2
:1018F000C2FF012240212846FFF725FAFFF7BBFF70
:10190000002240212846FFF71EFAFFF7B4FF01220C
:1019100080212846FFF717FA2046BDE8F081000035
:10192000000402402DE9F0411D4616460F460446CC
:1019300000F022F86006000E00F05CF8384600F077
:1019400059F800F019F8012000EB4400C0B200F093
:1019500051F800246F1E09E0BC4201DA012000E0CA
:101960000020FFF793FF3055641CE4B2AC42F3D380
:10197000BDE8F04100F022B810B50F4C01228021E3
:101980002046FFF7E0F9FFF776FF012240212046CD
:10199000FFF7D9F9FFF76FFF002280212046FFF7FC
:1019A000D2F9FFF768FF002240212046FFF7CBF96C
:1019B000BDE81040FFF75FBF0004024010B50C4CBB
:1019C000002280212046FFF7BEF9FFF754FF0122D5
:1019D00040212046FFF7B7F9FFF74DFF0122802194
:1019E0002046FFF7B0F9BDE81040FFF744BF000004
:1019F0000004024070B51C4E05460024280601D59F
:101A0000012200E0002280213046FFF79CF9FFF719
:101A100032FF012240213046FFF795F9FFF72BFFF7
:101A2000002240213046FFF78EF9FFF724FF6806B9
:101A3000050E641C082CE1DB012280213046FFF7F3
:101A400082F9FFF718FF012240213046FFF77BF9AA
:101A5000FFF711FF002240213046FFF774F9BDE87F
:101A60007040FFF708BF00000004024070B5154643
:101A70000E460446FFF780FF6006000EFFF7BAFF30
:101A80003046FFF7B7FF2846FFF7B4FFBDE87040C8
:101A9000FFF794BF10B501216B2000F067F800211B
:101AA0001C2000F063F80021BDE810401B2000F06E
:101AB0005DB800001FB50E236A463B216820FFF782
:101AC00031FFBDF8000040BA00B200EE100A254810
:101AD000F8EEC00A9FED220A60EE800AC0ED000A0F
:101AE000BDF8021049BA09B200EE901AF8EEE00A09
:101AF00060EE800AC0ED010ABDF8041049BA09B2CF
:101B000000EE901AF8EEE00A20EE800A80ED020A5C
:101B1000BDF8081049BA09B200EE101AF8EEC00A72
:101B20009FED110A60EE800AC0ED030ABDF80A10AD
:101B300049BA09B200EE901AF8EEE00A60EE800AA7
:101B4000C0ED040ABDF80C1049BA09B200EE901AB3
:101B5000F8EEE00A20EE800A80ED050A1FBD0000C5
:101B600000008038800000200000FA3B0A46014651
:101B70006820FFF77BBF000030B587B014216846AE
:101B8000FEF76AFB1E48016841F00401016001682C
:101B900001F004010591016841F0800101600168D4
:101BA00001F080010591016841F0010101600168C7
:101BB00001F001010591016841F002010160006836
:101BC000104D00F0020005900122C0212846FFF7C9
:101BD000BAF8202000904FF404100124CDE901044C
:101BE00069462846FEF790FFC020CDE90004022098
:101BF000CDE9024069462846FEF786FF07B030BDB2
:101C000030380240000402400C4810B50A49016017
:101C10004FF4E1314160002181600C22C160C0E9D4
:101C200004128161C161FFF763FD002803D0BDE8A4
:101C30001040FEF75BBE10BD0010014038000020D0
:101C400010B56A4C68482DED0C8BB0EE40AAB6EE8C
:101C5000000AD4ED010A90ED00DAD0ED01CA60EE81
:101C6000809AD4ED020A90ED02CAD0ED03BA60EE7C
:101C7000808AD4ED030A90ED04BAD0ED05AA20EED7
:101C8000808AD4ED040A20EE809A2DEE0D0A0CEE27
:101C9000AC0A0CEE0C0A10EE100AFEF75AFB41ECEF
:101CA000100B00F0B1FE51EC100BFEF765FB00EEDF
:101CB000100A68EE890ACDEE002A49EEC80ACCEE79
:101CC000801A8CEE003AB0EE000A20EE804A69EEEF
:101CD000A80A48EE090A60EE803A69EEA90A23EEE6
:101CE000832A48EEE80A48EE480A49EE090A00EE5F
:101CF000E12A20EEA21AD4ED050A64EE211A04EEC0
:101D0000431A42EE000A94ED063A43EEE21AD4ED8D
:101D1000072A01EE003A7BEEA00A41EE802A68EE27
:101D2000E01A3BEE031A20EEA92A3AEEA20A48EE88
:101D3000411AD4ED012A21EE293A08EE002A49EE93
:101D4000401A08EEC03A20EE290A09EE412A41EE77
:101D50008A2A09EE203A08EE810AC4ED012AD4ED60
:101D6000021A08EE600A42EE0A1AC4ED021A94ED55
:101D7000032A03EE0A2A84ED032AD4ED040A40EE76
:101D80000A0A22EEA20A01EEA10AC4ED040A02EE3A
:101D9000020A00EEA00A10EE100AFEF7DAFA41EC91
:101DA000100B00F031FE51EC100BFEF7E5FA00EEDF
:101DB000100AD4ED010A80EE801A84ED011AD4EDE8
:101DC000020A80EE801A84ED021AD4ED030A80EE36
:101DD000801A84ED031AD4ED040A80EE801A84ED93
:101DE000041ABDEC0C8B10BD8000002010000020F8
:101DF000FEE7FEE770477047FEF7B0BF30B593B01F
:101E000030216846FEF728FA14210CA8FEF724FAC0
:101E100020480025016841F080510160006800F011
:101E2000805011901C48016841F4404101600068F5
:101E3000022400F4404011900120039010200490EF
:101E4000009406940820CDE90750B420CDE9090498
:101E500004200B906846FFF73FF908B172B6FEE721
:101E6000FFF716F808B172B6FEE70CA90F2081E85B
:101E700031004FF4A0500F904FF480501090052186
:101E80000CA8FFF73DF8002801D072B6FEE713B0AA
:101E900030BD000040380240007000400248016838
:101EA00041F470010160704788ED00E010B5806B6F
:101EB0000021C185FFF7DBFA10BD01680C3151E844
:101EC000002F22F4907241E80023002BF5D1016825
:101ED000143151E8002F22F0010241E80023002BC9
:101EE000F5D1016B012909D101680C3151E8002FAE
:101EF00022F0100241E80023002BF5D1202180F8C8
:101F0000421000210163704708B590F84210222961
:101F100001D0022008BD82684FF480539A4201D15B
:101F2000016921B1816A9A421BD04AB10AE0026874
:101F3000816A5268C2F308020A80816A891C08E03B
:101F4000026972B10268526802F07F020A70816A07
:101F5000491C8162C18D491E0904090CC18503D049
:101F60001BE002685268F1E70168CA6822F02002AB
:101F7000CA600168CA6822F48072CA6001684A694E
:101F800022F001024A61202180F8421000214163C1
:101F9000026B012A03D0FFF71BFC002008BD016380
:101FA00001680C3151E8002F22F0100241E80023B3
:101FB000002BF5D101680A68D20602D50A68496883
:101FC0000091818DFFF752FAE7E7000070B50446F3
:101FD00000680169E26821F44051114301612169FF
:101FE000A068E26908436169114308432168CA682F
:101FF00049F20C639A430243CA6020684169A269AE
:1020000021F440711143416131492068884202D076
:102010003049884202D1FFF71DF801E0FFF70AF8C6
:10202000E2690023192164253226B2F5004F626867
:1020300028D0A0FB0101930F9200FEF7D5F80146CE
:10204000B0FBF5F06FF01802504301EB800006EB97
:102050000010B0FBF5F000F0F002B1FBF5F002EB80
:102060000012B1FBF5F06FF01803584301EB80004C
:1020700006EB0010B0FBF5F000F00F0021681044F3
:10208000886070BDA0FB010192185B41FEF7ACF8BF
:102090000146B0FBF5F00201B1FBF5F06FF018035B
:1020A000584301EB800006EBC000B0FBF5F000F0F8
:1020B000F80002EB4002B1FBF5F0584301EB800061
:1020C00006EBC000B0FBF5F000F00700D6E700001B
:1020D00000100140001401402DE9F84398461746CE
:1020E0000D460446089E24E0701C22D0FEF730FE08
:1020F000A0EB0800B0421AD8CEB12068C1684907E9
:1021000017D5802D15D0402D13D00168C94309077C
:102110000FD401680025406800902046FFF7CDFEEF
:102120000820606484F840500120BDE8F883032053
:10213000FBE72068006835EA000004D00020B842C0
:10214000D2D00020F1E70120F9E700000148FFF7B5
:102150008FB9000038000020FEE700000FB4054BE7
:1021600010B503A9044A029800F016FE10BC5DF8F1
:1021700014FB0000C93400083000002003B40198AB
:102180004100009850EAC12018BF04204A0D18BF32
:1021900040F0010040F2FF72B2EB515F08BF40F027
:1021A0000200012808BF052002B070470907090E88
:1021B000002804DB00F1E02080F80014704700F0F4
:1021C0000F0000F1E02080F8141D704700000000AF
:1021D00070B5C1482DED020B2DED0E8B82B0119D17
:1021E00025F000449FEDBEDB9FEDBFEB84423EDB5C
:1021F000A4F140511098A1F17F6108430FD0BC4871
:10220000844202DC28D1109830B39DED100B02B04F
:10221000BDEC0E8B02B0BDE8704000F0AEBC9DED91
:10222000100B53EC1D2B51EC100BFEF720F89DED1D
:10223000100B41EC180B53EC1E2B51EC100BFEF75E
:1022400016F853EC182BFEF77CF941EC100B02B09A
:10225000BDEC0E8B02B070BD012000F0D5FC02B0C9
:10226000BDEC0E8B02B0BDE8704000F09DBCA148F3
:102270009FEDA18B844256DA9DED100BB4F1795F8E
:102280000ADA51EC100BFFF779FF042808BF00F0C1
:102290009BFC9DED100BDAE753EC102B51EC100B6F
:1022A000FDF7E5FF41EC190B95480621B0EE490A10
:1022B000F0EE690A784400F0E4FB53EC192B51EC82
:1022C000100BFDF7D4FF41EC1A0B8E48B0EE490A13
:1022D000F0EE690A0421784400F0D3FB53EC192B8B
:1022E00051EC100BFDF7C3FF53EC182BFEF729F947
:1022F00041EC100B51EC1A0B53EC102BFEF7C8F904
:10230000CDE900019DED000B53EC102B9DED100B62
:1023100051EC100BFDF7ABFF9DED101B53EC112B97
:10232000FEF70FF9D2E09DED100B51EC100B01F010
:10233000BEF853EC182BFEF7A8F99FED730BCDE90F
:10234000000153EC102B9DED000B51EC100BFDF731
:102350008EFF41EC190B6E480621B0EE490AF0EEF3
:10236000690A784400F08DFB53EC192B51EC100BEB
:10237000FDF77DFF41EC1B0B6648B0EE490AF0EE1D
:10238000690A0421784400F07CFB53EC192B51ECD2
:10239000100BFDF76CFF53EC182BFEF7D2F841EC55
:1023A0001C0B51EC190B01F0F9F841EC180B5A48D1
:1023B0009FED5BABA04222DC53EC1C2B51EC1B0BC2
:1023C000FEF766F9CDE900019DED000B51EC180B0D
:1023D00053EC102BFDF74BFF53EC182BFEF7B1F825
:1023E00053EC1A2BFDF743FF53EC1D2BFEF74AF974
:1023F00053EC1E2BFEF749F941EC100B5FE08DED1D
:10240000008B002000909DED000B51EC180B53EC5D
:10241000102BFEF796F89DED000B41EC1E0B53ECD4
:10242000102B51EC100BFDF722FF53EC192BFEF78C
:102430002CF953EC1E2BFEF72BF941EC190B53EC46
:102440001C2B51EC1B0BFEF723F941EC1B0B53EC3F
:102450001A2B51EC190BFDF70AFF53EC1D2BFEF75D
:1024600014F941EC190B53EC1A2B51EC180BFDF736
:10247000FEFE53EC1B2BFDF7FAFE53EC192BFEF777
:1024800001F99DED000B41EC180B53EC1A2B51ECAC
:10249000100BFDF7ECFE9FED249B53EC192BFEF780
:1024A000F4F841EC100B51EC180B53EC102BFEF729
:1024B000E9F853EC192BFEF7E8F841EC100B002D6E
:1024C0003FF7C5AE51EC100B81F0004141EC100B11
:1024D000BDE60000000000000000F03F000000002A
:1024E000075C143326A6913C182D4454FB21F93F78
:1024F0000000F07F0000E03F000000000000F03F1F
:10250000701300007E130000000000000000E03F98
:10251000C2120000D01200003333EF3F0000000071
:102520000000000000000040182D4454FB21E93F4A
:1025300070B59B482DED020B2DED068B079D25F008
:102540000044A04218DC9748844202DC0AD1069875
:1025500040B19DED060BBDEC068B02B0BDE87040AE
:1025600000F00BBB002DCCBF9FED8F0B9FED900BB0
:10257000BDEC068B02B070BD8F48A04215DD8F48C0
:10258000A042D8BF4FF0FF3458DD9DED060B51EC53
:10259000100BFFF7F3FD042808BF00F015FB9DEDBD
:1025A000060BBDEC068B02B070BD9DED060B51EC29
:1025B000100B00F07CFFCDE9060181489FED828B76
:1025C000A0423CDD8248A0421FDD00249FED82AB8B
:1025D0009DED060B53EC1A2B51EC100BFDF7B1FFE0
:1025E0009DED060B41EC190B53EC1A2B51EC100B23
:1025F000FDF73DFE53EC182BFEF744F853EC192B76
:10260000FEF746F8CDE9060149E09DED060B0124F1
:1026100053EC182B51EC100BFDF793FF9DED060BBF
:1026200041EC190B53EC182B51EC100BFEF72AF868
:1026300053EC192BFEF72CF8CDE906012FE0684882
:10264000A0421FDD02249FED689B9DED060B53EC1D
:10265000192B51EC100BFDF70AFE53EC182BFDF76C
:1026600070FF9DED060B41EC180B53EC192B51EC50
:10267000100BFEF707F853EC182BFEF709F8CDE91D
:1026800006010CE09DED060B032453EC102B9FED8F
:10269000580B51EC100BFDF7FBFFCDE906019DED4A
:1026A000060B53EC102B51EC100BFDF7E0FD41EC49
:1026B000180B53EC182BFDF7DAFD41EC190B4E48C3
:1026C0000621B0EE490AF0EE690A784400F0D9F923
:1026D00053EC182B51EC100BFDF7C9FD41EC180B16
:1026E0004648B0EE490AF0EE690A0521784400F048
:1026F000C8F953EC192B51EC100BFDF7B8FD41EC68
:10270000100B51EC180B53EC102B002C0EDAFDF7CC
:1027100018FF9DED061B53EC112BFDF7A8FD9DED59
:10272000061B53EC112BFDF7B0FF35E0FDF709FF59
:102730009DED061B53EC112BFDF799FD41EC100BA1
:102740002F48784400EBC40090ED001B51EC100BB7
:1027500053EC112BFDF796FF9DED061B53EC112B4F
:10276000FDF790FF41EC100B2648784400EBC400C5
:1027700090ED001B51EC100B53EC112BFDF785FF76
:1027800041EC100B002DA2BFBDEC068B02B070BD5A
:1027900051EC100B81F0004141EC100B01E70000FF
:1027A000000010440000F07F182D4454FB21F93F35
:1027B000182D4454FB21F9BF0000DC3F0000203EEF
:1027C0000000F33F00000000000000000000F03FA8
:1027D0000000E63F00000000000000000000004094
:1027E0000080034000000000000000000000F83FEF
:1027F000000000000000F0BF12100000C80F000031
:10280000520F00000A0F000070B56F4E2DED040B43
:102810002DED048B82B0DDF824C0DDE907235C4296
:102820002CF000411C4341EAD474069D22F0004084
:10283000B44205D86C422C4340EAD474B4420BD95C
:102840009DED081B9DED060B02B0BDEC048B04B0A2
:10285000BDE8704000F09BB9ACF14054A4F17F6436
:102860001C430BD0022404EAAC7444EAD27405433E
:102870009FED578B9FED582B07D015E09DED060B74
:1028800051EC100B00F00BFE42E0002C11BF012CAC
:102890009DED060B02B0BDEC048B04BF04B070BD0F
:1028A000022C38D0032C3BD00B439FED4D1B9FEDEA
:1028B0004E0B0AD0B14218D1B04209D121F080416B
:1028C00020F08040099107900FE0002A15DA10E00F
:1028D000474B7B44002C08BF93ED000B0DD0012C1F
:1028E00010D0022C17D0032C1AD0B0421DD1002AD0
:1028F00003DAB0EE410AF0EE610A02B0BDEC048BDF
:1029000004B070BD93ED000B51EC100B81F0004151
:1029100041EC100BF1E7B0EE480AF0EE680AECE784
:10292000B0EE420AF0EE620AE7E7401A00159FEDAA
:10293000329B3C28C8BF8DED000B17DCBCF1000FAB
:10294000BCBF10F13C0F8DED009B0FDB9DED080B24
:1029500053EC102B9DED060B51EC100BFDF798FE80
:1029600000F0A5FD00F09BFDCDE90001B4B1012C04
:1029700010D0022C9FED220B53EC102B9DED000B81
:1029800051EC100B19D0FDF77DFE53EC182BFDF721
:1029900079FEBDE7019880F0004001909DED000BAD
:1029A00053EC192B51EC100BFDF74AFF04BF02202A
:1029B00000F02AF99DED000B9FE7FDF763FE53EC55
:1029C000182BFDF762FEA3E70000F07F0000000077
:1029D000182D4454FB210940182D4454FB2109C0F3
:1029E000182D4454FB21F9BF182D4454FB21F93F05
:1029F0003A0E00000000000000000000000000008F
:102A0000075C143326A6A13C00B52DED048BB0EE77
:102A1000409AF0EE609A83B051EC190BFDF7A7FED7
:102A200041EC180B18EE100A18EE901A8DED008B81
:102A3000002818BF0120084320F00040C0F17F604B
:102A400000F1E040C00F14D019EE101A19EE900AF0
:102A50008DED009B002918BF0121084320F00040A4
:102A6000C0F17F6000F1E040C00F04BF012000F022
:102A7000CBF8B0EE480A03B0F0EE680ABDEC048B68
:102A800000BD70B504462DED028B4D1E00EBC50058
:102A9000B0EE408AF0EE608A90ED000B35F0060053
:102AA00017D053EC182B51EC100BFDF7E0FB41EC69
:102AB000100B6D1E04EBC50090ED001B51EC100BCC
:102AC00053EC112BFDF73DFD41EC100B35F00600EA
:102AD000E7D1022D36D0042D1CD0062D1CBFBDEC35
:102AE000028B70BD53EC182B51EC100BFDF7BFFBA4
:102AF00094ED0A1B53EC112BFDF723FD53EC182B1F
:102B0000FDF7B5FB94ED081B53EC112BFDF719FDF8
:102B100041EC100B53EC182B51EC100BFDF7A7FBFD
:102B200094ED061B53EC112BFDF70BFD53EC182B0A
:102B3000FDF79DFB94ED040B53EC102BFDF701FD0D
:102B400041EC100B53EC182B51EC100BFDF78FFBE5
:102B500094ED021B53EC112BFDF7F3FC53EC182BF7
:102B6000FDF785FB94ED001B53EC112BFDF7E9FC01
:102B7000BDEC028B41EC100B70BD10B553EC102B6B
:102B800051EC100BFDF7DDFC41EC100B10BD10B546
:102B900053EC112B51EC100BFDF7D3FC41EC100B57
:102BA00010BD0000000000009FED050B10B553ECB8
:102BB000102B51EC100BFDF76BFD41EC100B10BD11
:102BC00000000000000000009FED050B10B553EC65
:102BD000102B51EC100BFDF74AFB41EC100B10BD14
:102BE000000000000000001002E008C8121F08C129
:102BF000002AFAD170477047002001E001C1121F7E
:102C0000002AFBD1704700000149086070470000AE
:102C1000340000202DE9FF5F82B00021DDE904309F
:102C2000020DDDF840B0034318D044F61050A2F274
:102C3000FF3242431514119801281FD0A5EB0B0059
:102C4000401C5FEA000A4FF000064E4FDFF8389153
:102C5000B046504615D5CAF1000413E0119801247E
:102C60004AA3012801D16FEA0B010298119AC0E929
:102C70000031C0E9024206B0BDE8F09FCBF1000090
:102C8000DFE704460021404A491842EB0450CDE9F1
:102C9000001012E0E00707D032463B464046494666
:102CA000FDF7E5FA8046894632463B46104619460E
:102CB000FDF7DDFA06460F466410002CEAD1DDE987
:102CC0000401DDE90023BAF1000F06DAFDF7CFFABF
:102CD00042464B46FDF7CBFA05E0FDF7D9FC4246EC
:102CE0004B46FDF7D5FC04460E460022284BFDF767
:102CF000BFFD03D84FF0FF30014607E00022254B0F
:102D000020463146FDF71DFCFDF782FD102409E049
:102D1000002C0ADB0A220023FDF766FA039B3032FF
:102D20001A55641E50EA0102F2D1641C039AC4F1E0
:102D300011031444119A012A03D0012208430DD132
:102D40000AE0084304D000204FF0110B119072E705
:102D5000A3EB0B056D1E0DE05B4504DD4FF000029B
:102D600005F1010504E003DA4FF00002A5F10105C9
:102D7000002AECD002981199C0E90231C0E900455F
:102D800079E70000000014400000F03F3000000030
:102D90000000F0430000E03F2DE9FF4F95B09A4658
:102DA000884606460025EEE1252877D100242746EF
:102DB000F94A0121039400E0044316F8013F203B47
:102DC00001FA03F01042F7D130782A2811D06FF0C1
:102DD0002F033078A0F13002092A16D8039A44F064
:102DE000020402EB820203EB42021044761C0390C1
:102DF000EFE758F8042B0392002A03DA504244F418
:102E00000054039044F00204761C30782E2816D12A
:102E100016F8010F44F004042A280DD06FF02F0299
:102E20003078A0F13003092B09D807EB870302EBB8
:102E30004303C718761CF3E758F8047B761C3078F8
:102E40006C280FD006DC4C2817D068280DD06A28D3
:102E500014D104E0742810D07A280FD10DE044F486
:102E600000140AE044F4801401E044F44014727841
:102E7000824202D104F58014761C761C30786628D4
:102E80000BD013DC582877D009DC002875D04528F2
:102E9000F6D04628F4D047281AD193E118E06328E9
:102EA00035D0642879D0652812D18BE1702873D091
:102EB00008DC6728F1D069286FD06E280DD06F2804
:102EC00006D1ACE073282CD0752874D0782853D064
:102ED0005246179990476D1C54E1C4F302500228E2
:102EE00009D003280DD0D8F8001004280DD00D60AB
:102EF00008F1040846E1D8F80010EA17C1E90052C9
:102F0000F6E7D8F800100D80F2E70D70F0E718F83A
:102F1000041B8DF8001000208DF80100EB46012005
:102F200003E058F804BB4FF0FF3061074FF0000199
:102F300002D40DE009F101018946B9420FDA814559
:102F4000F8DB1BF809100029F4D108E009F10101B0
:102F500089468142FADB1BF809100029F6D1039853
:102F60005346A0EB090721463846179A00F080FA2D
:102F7000284400EB090507E044E008E10DE01BF8F8
:102F8000010B524617999047B9F10109F7D2534600
:102F900021463846179AF2E039E00A21C4F302527A
:102FA0004FF0000B0091022A06D058F8040BC1170D
:102FB000032A09D00AE023E008F1070020F0070205
:102FC000F2E80201904605E000B2C117042A01D1DF
:102FD00040B2C117002906DA0A460021404261EBDF
:102FE00002012D2202E0220504D52B228DF80420B7
:102FF000012203E0E20701D02022F7E7914657E0E3
:103000000A2100E010214FF0000B00910BE010218D
:103010004FF0000B44F004040827009103E008205F
:103020004FF0000B0090C4F30252022A05D058F86A
:10303000040B0021032A08D008E008F1070020F063
:103040000702F2E80201904603E080B2042A00D1B0
:10305000C0B24FF0000922072AD53278702A07D073
:10306000DDF800C08CF0100C5CEA0B0C05D00EE013
:1030700040228DF80420012208E050EA010306D026
:1030800030238DF804308DF8052002229146009BF4
:1030900083F0080353EA0B030AD150EA010201D17D
:1030A000620705D530228DF804204FF001097F1EFC
:1030B0003278582A04D039A20C920CAA02920BE062
:1030C0003BA2F9E75B46009AFDF78EF80C9B9B5CF0
:1030D000029A521E0292137050EA0102F2D1029833
:1030E00004A9081A00F1200B600702D524F48034EB
:1030F00000E001275F4502DDA7EB0B0000E00020A8
:1031000000EB0B01009003984944401A0390E00340
:1031100006D453462146179A039800F0A9F90544AE
:10312000002706E001A85246C05D179990476D1C24
:103130007F1C4F45F6DBE0030CD553462146179A1A
:10314000039800F095F9054404E0302052461799A1
:1031500090476D1C0099481E00900029F5DC08E09E
:103160000298029952460078491C0291179990479B
:103170006D1CBBF10001ABF1010BF1DC5BE100F078
:1031800065F90544761C307800287FF40DAE19B03F
:103190002846BDE8F08F00000928010030313233A5
:1031A0003435363738396162636465660000000083
:1031B000303132333435363738394142434445466D
:1031C00000000000600700D4062708F1070020F087
:1031D0000700F0E80223804603F0004C5FEA0C0091
:1031E00001D097A009E0200501D596A005E0E007F1
:1031F00001D095A001E0AFF24C001390307823F09D
:10320000004365280CD006DC452809D046281DD08F
:1032100047287FD13BE0662818D067287AD136E06E
:103220000021112F01DB112000E0781CCDE9000105
:1032300004A90CA8FFF7EEFCDDE90D010C9A4FF094
:10324000000B07F10109109200914EE04FF0004091
:103250000097CDE9011004A90CA8FFF7DBFCDDE91C
:103260000D020C9B0F994FF0000B914610930092AA
:1032700011B9791C00EB0109B7EB090003D4C0F1C7
:10328000FF3B07F10109A9EB0700019042E0012F84
:1032900000DA01270021112F01DD112000E038465E
:1032A000CDE9000104A90CA8FFF7B4FCDDE90D018C
:1032B0000C9A00914FF0000BB946109221070FD4E1
:1032C000009A4A4503DA914601E0A9F10109B9F1F2
:1032D000010F05DD109AA9F10101515C3029F4D0EC
:1032E000B84202DA10F1040F03DA0121CDE901102E
:1032F00010E0002803DC8344A9EB000102E0411C3C
:10330000494500DD8946A0EB0B00401C01904FF0C1
:1033100000400290200705D40198484502DB4FF099
:10332000FF30019000208DF84B0002980DF14B0703
:10333000B0F1004F25D002200C902B200D90029868
:1033400000280CDA404202902D200D9007E00A215F
:103350000298FDF72DF83031029007F8011D0C9905
:10336000481E0C900029F2DC02980028EFD1791E4B
:103370000D980870307800F0200040F0450007F804
:10338000020D11A8C01BC01D02901398007800B157
:10339000012000EB0901019801EBE0710298014462
:1033A0000398401A401E0390E00306D4534621467A
:1033B000179A039800F05CF805441398007818B148
:1033C0005246179990476D1CE00323D5534621467A
:1033D000179A039800F04CF805441BE0BBF1000F6E
:1033E00007DB0098584504DD1098179910F80B007A
:1033F00001E0179930205246904701980BF1010BDC
:10340000401E05F10105019004D12E205246179966
:1034100090476D1CB9F10001A9F10109DEDC05E05E
:1034200017F8010B5246179990476D1C0299481ED8
:1034300002900029F4DC53462146179A03989EE631
:103440002D0000002B000000200000002DE9F041BD
:10345000044600251E461746880404D405E0394674
:103460002020B0476D1C641EF9D52846BDE8F081C8
:103470002DE9F041044600251E469046C80301D5BB
:10348000302700E02027880404D505E0414638466F
:10349000B0476D1C641EF9D52846BDE8F08110B513
:1034A00041EC100BFFF744F851EC100B10BD82B04B
:1034B000CDE9000121F0004001909DED000B02B02C
:1034C00051EC100B7047000038B504468DF8000031
:1034D0004FF6FF73012269460248FEF77AF920464B
:1034E00038BD0000380000201FB5FDF73FFCFEF797
:1034F00085FCFEF741FBFEF787FBFEF7CBFADFF812
:103500006C9000BF99F8001059B3002189F80010A1
:10351000FEF7D0FA9FED160AFEF792FBFDF7E8F9E9
:10352000DFF8508098ED020A10EE100AFCF711FF48
:1035300098ED010A06460F4610EE100AFCF709FF47
:1035400098ED000A04460D4610EE100AFCF701FF44
:103550008DE8F00041EC100B07A053EC102BFEF7A8
:10356000FDFD0A20FDF7BEFACCE7000010000020A8
:103570000AD7233C98000020526F6C6C3A20252E0D
:1035800032662C2050697463683A20252E32662CEE
:10359000205961773A20252E32660A0000B52DEDBC
:1035A000048B83B041EC190BFDF7E1F841EC180BEB
:1035B00018EE100A18EE901A8DED008B002818BF37
:1035C0000120084320F00040C0F17F6000F1E0409E
:1035D000C00F14D019EE101A19EE900A8DED009B51
:1035E000002918BF0121084320F00040C0F17F608E
:1035F00000F1E040C00F04BF0120FFF705FB51ECD4
:10360000180B03B0BDEC048B00BD000000000000EF
:10361000000001020304060708090000000001027F
:103620000304000000000000555555555555C53F91
:103630007D6FEB0312D6D4BF5544880E55C1C93FE8
:103640003B8F68B52882A4BF88B20175E0EF493F7F
:1036500009F7FD0DE13D023F4B2D8A1C273A03C0BF
:10366000C88A599CE52A004059018D1B6C06E6BFAB
:1036700082922EB1C5B8B33F4FBB610567ACDD3F49
:10368000182D4454FB21E93F9BF681D20B73EF3F89
:10369000182D4454FB21F93FE2652F227F2B7A3C01
:1036A000075C143326A6813CBDCBF07A8807703CBA
:1036B000075C143326A6913CC4EB98999999C9BF2D
:1036C000711623FEC671BCBF6D9A74AFF2B0B3BF62
:1036D0009AFDDE522DDEADBF2F6C6A2C44B4A2BF22
:1036E0000D5555555555D53FFF8300922449C23F8E
:1036F0006E204CC5CD45B73F513DD0A0660DB13FC2
:10370000EB0D76244B7BA93F11DA22E33AAD903FD3
:103710000000000000000000383700080000002012
:1037200038000000E82B000870370008380000203F
:1037300070040000F82B00080100000010000000D9
:10374000000000000024F400010000000000803FA1
:103750000000000000000000000000000000000069
:103760000000000000000000000000000000000059
:04000005080001AD41
:00000001FF
